{
  "_format": "hh-sol-artifact-1",
  "contractName": "TodoList",
  "sourceName": "contracts/TodoList.sol",
  "abi": [
    {
      "anonymous": false,
      "inputs": [
        {
          "indexed": true,
          "internalType": "uint256",
          "name": "id",
          "type": "uint256"
        },
        {
          "indexed": false,
          "internalType": "string",
          "name": "text",
          "type": "string"
        }
      ],
      "name": "TaskCreated",
      "type": "event"
    },
    {
      "anonymous": false,
      "inputs": [
        {
          "indexed": true,
          "internalType": "uint256",
          "name": "id",
          "type": "uint256"
        },
        {
          "indexed": false,
          "internalType": "bool",
          "name": "completed",
          "type": "bool"
        }
      ],
      "name": "TaskToggled",
      "type": "event"
    },
    {
      "inputs": [
        {
          "internalType": "string",
          "name": "text",
          "type": "string"
        }
      ],
      "name": "createTask",
      "outputs": [],
      "stateMutability": "nonpayable",
      "type": "function"
    },
    {
      "inputs": [
        {
          "internalType": "uint256",
          "name": "id",
          "type": "uint256"
        }
      ],
      "name": "getTask",
      "outputs": [
        {
          "internalType": "string",
          "name": "",
          "type": "string"
        },
        {
          "internalType": "bool",
          "name": "",
          "type": "bool"
        }
      ],
      "stateMutability": "view",
      "type": "function"
    },
    {
      "inputs": [],
      "name": "getTasksCount",
      "outputs": [
        {
          "internalType": "uint256",
          "name": "",
          "type": "uint256"
        }
      ],
      "stateMutability": "view",
      "type": "function"
    },
    {
      "inputs": [
        {
          "internalType": "uint256",
          "name": "",
          "type": "uint256"
        }
      ],
      "name": "tasks",
      "outputs": [
        {
          "internalType": "string",
          "name": "text",
          "type": "string"
        },
        {
          "internalType": "bool",
          "name": "completed",
          "type": "bool"
        }
      ],
      "stateMutability": "view",
      "type": "function"
    },
    {
      "inputs": [
        {
          "internalType": "uint256",
          "name": "id",
          "type": "uint256"
        }
      ],
      "name": "toggleCompleted",
      "outputs": [],
      "stateMutability": "nonpayable",
      "type": "function"
    }
  ],
  "bytecode": "0x608060405234801561001057600080fd5b50610c16806100206000396000f3fe608060405234801561001057600080fd5b50600436106100575760003560e01c8063111002aa1461005c5780631d65e77e14610078578063455f5024146100a95780638d977672146100c55780639f899273146100f6575b600080fd5b610076600480360381019061007191906105a5565b610114565b005b610092600480360381019061008d9190610628565b610222565b6040516100a0929190610700565b60405180910390f35b6100c360048036038101906100be9190610628565b61033d565b005b6100df60048036038101906100da9190610628565b610461565b6040516100ed929190610700565b60405180910390f35b6100fe61052a565b60405161010b919061073f565b60405180910390f35b6000604051806040016040528084848080601f016020809104026020016040519081016040528093929190818152602001838380828437600081840152601f19601f82011690508083019250505050505050815260200160001515815250908060018154018082558091505060019003906000526020600020906002020160009091909190915060008201518160000190816101b09190610995565b5060208201518160010160006101000a81548160ff021916908315150217905550505060016000805490506101e59190610a96565b7fa5ed9e6226c584326505694539c95cb0e3238ae09bcda5a65c00bbfdab1c66628383604051610216929190610b06565b60405180910390a25050565b606060008080549050831061026c576040517f08c379a000000000000000000000000000000000000000000000000000000000815260040161026390610b76565b60405180910390fd5b600080848154811061028157610280610b96565b5b90600052602060002090600202019050806000018160010160009054906101000a900460ff168180546102b3906107b8565b80601f01602080910402602001604051908101604052809291908181526020018280546102df906107b8565b801561032c5780601f106103015761010080835404028352916020019161032c565b820191906000526020600020905b81548152906001019060200180831161030f57829003601f168201915b505050505091509250925050915091565b6000805490508110610384576040517f08c379a000000000000000000000000000000000000000000000000000000000815260040161037b90610b76565b60405180910390fd5b6000818154811061039857610397610b96565b5b906000526020600020906002020160010160009054906101000a900460ff1615600082815481106103cc576103cb610b96565b5b906000526020600020906002020160010160006101000a81548160ff021916908315150217905550807fe668c7a227d9261aa1f964bf5a852ab642446a7af6c29405caf8d0e9ce2c11f06000838154811061042a57610429610b96565b5b906000526020600020906002020160010160009054906101000a900460ff166040516104569190610bc5565b60405180910390a250565b6000818154811061047157600080fd5b9060005260206000209060020201600091509050806000018054610494906107b8565b80601f01602080910402602001604051908101604052809291908181526020018280546104c0906107b8565b801561050d5780601f106104e25761010080835404028352916020019161050d565b820191906000526020600020905b8154815290600101906020018083116104f057829003601f168201915b5050505050908060010160009054906101000a900460ff16905082565b60008080549050905090565b600080fd5b600080fd5b600080fd5b600080fd5b600080fd5b60008083601f84011261056557610564610540565b5b8235905067ffffffffffffffff81111561058257610581610545565b5b60208301915083600182028301111561059e5761059d61054a565b5b9250929050565b600080602083850312156105bc576105bb610536565b5b600083013567ffffffffffffffff8111156105da576105d961053b565b5b6105e68582860161054f565b92509250509250929050565b6000819050919050565b610605816105f2565b811461061057600080fd5b50565b600081359050610622816105fc565b92915050565b60006020828403121561063e5761063d610536565b5b600061064c84828501610613565b91505092915050565b600081519050919050565b600082825260208201905092915050565b60005b8381101561068f578082015181840152602081019050610674565b60008484015250505050565b6000601f19601f8301169050919050565b60006106b782610655565b6106c18185610660565b93506106d1818560208601610671565b6106da8161069b565b840191505092915050565b60008115159050919050565b6106fa816106e5565b82525050565b6000604082019050818103600083015261071a81856106ac565b905061072960208301846106f1565b9392505050565b610739816105f2565b82525050565b60006020820190506107546000830184610730565b92915050565b7f4e487b7100000000000000000000000000000000000000000000000000000000600052604160045260246000fd5b7f4e487b7100000000000000000000000000000000000000000000000000000000600052602260045260246000fd5b600060028204905060018216806107d057607f821691505b6020821081036107e3576107e2610789565b5b50919050565b60008190508160005260206000209050919050565b60006020601f8301049050919050565b600082821b905092915050565b60006008830261084b7fffffffffffffffffffffffffffffffffffffffffffffffffffffffffffffffff8261080e565b610855868361080e565b95508019841693508086168417925050509392505050565b6000819050919050565b600061089261088d610888846105f2565b61086d565b6105f2565b9050919050565b6000819050919050565b6108ac83610877565b6108c06108b882610899565b84845461081b565b825550505050565b600090565b6108d56108c8565b6108e08184846108a3565b505050565b5b81811015610904576108f96000826108cd565b6001810190506108e6565b5050565b601f8211156109495761091a816107e9565b610923846107fe565b81016020851015610932578190505b61094661093e856107fe565b8301826108e5565b50505b505050565b600082821c905092915050565b600061096c6000198460080261094e565b1980831691505092915050565b6000610985838361095b565b9150826002028217905092915050565b61099e82610655565b67ffffffffffffffff8111156109b7576109b661075a565b5b6109c182546107b8565b6109cc828285610908565b600060209050601f8311600181146109ff57600084156109ed578287015190505b6109f78582610979565b865550610a5f565b601f198416610a0d866107e9565b60005b82811015610a3557848901518255600182019150602085019450602081019050610a10565b86831015610a525784890151610a4e601f89168261095b565b8355505b6001600288020188555050505b505050505050565b7f4e487b7100000000000000000000000000000000000000000000000000000000600052601160045260246000fd5b6000610aa1826105f2565b9150610aac836105f2565b9250828203905081811115610ac457610ac3610a67565b5b92915050565b82818337600083830152505050565b6000610ae58385610660565b9350610af2838584610aca565b610afb8361069b565b840190509392505050565b60006020820190508181036000830152610b21818486610ad9565b90509392505050565b7f496e76616c696420696400000000000000000000000000000000000000000000600082015250565b6000610b60600a83610660565b9150610b6b82610b2a565b602082019050919050565b60006020820190508181036000830152610b8f81610b53565b9050919050565b7f4e487b7100000000000000000000000000000000000000000000000000000000600052603260045260246000fd5b6000602082019050610bda60008301846106f1565b9291505056fea264697066735822122083cb51d919d232a4cb4d3afcbc5b0aca8d293dd07e8bb46867fc0133267af27864736f6c63430008130033",
  "linkReferences": {},
  "deployedLinkReferences": {}
}